{
  "abi": [
    {
      "type": "constructor",
      "inputs": [
        {
          "name": "_admin",
          "type": "address",
          "internalType": "address"
        },
        {
          "name": "_gatewayWalletAddress",
          "type": "address",
          "internalType": "address"
        }
      ],
      "stateMutability": "nonpayable"
    },
    {
      "type": "function",
      "name": "MAX_DESCRIPTION_LENGTH",
      "inputs": [],
      "outputs": [
        {
          "name": "",
          "type": "uint256",
          "internalType": "uint256"
        }
      ],
      "stateMutability": "view"
    },
    {
      "type": "function",
      "name": "MAX_GATEWAY_TX_ID_LENGTH",
      "inputs": [],
      "outputs": [
        {
          "name": "",
          "type": "uint256",
          "internalType": "uint256"
        }
      ],
      "stateMutability": "view"
    },
    {
      "type": "function",
      "name": "MAX_LABEL_LENGTH",
      "inputs": [],
      "outputs": [
        {
          "name": "",
          "type": "uint256",
          "internalType": "uint256"
        }
      ],
      "stateMutability": "view"
    },
    {
      "type": "function",
      "name": "MAX_REASON_LENGTH",
      "inputs": [],
      "outputs": [
        {
          "name": "",
          "type": "uint256",
          "internalType": "uint256"
        }
      ],
      "stateMutability": "view"
    },
    {
      "type": "function",
      "name": "addBackendOperator",
      "inputs": [
        {
          "name": "operator",
          "type": "address",
          "internalType": "address"
        }
      ],
      "outputs": [],
      "stateMutability": "nonpayable"
    },
    {
      "type": "function",
      "name": "addManager",
      "inputs": [
        {
          "name": "manager",
          "type": "address",
          "internalType": "address"
        }
      ],
      "outputs": [],
      "stateMutability": "nonpayable"
    },
    {
      "type": "function",
      "name": "admin",
      "inputs": [],
      "outputs": [
        {
          "name": "",
          "type": "address",
          "internalType": "address"
        }
      ],
      "stateMutability": "view"
    },
    {
      "type": "function",
      "name": "approveSpend",
      "inputs": [
        {
          "name": "requestId",
          "type": "uint256",
          "internalType": "uint256"
        }
      ],
      "outputs": [],
      "stateMutability": "nonpayable"
    },
    {
      "type": "function",
      "name": "autoTopup",
      "inputs": [
        {
          "name": "accountId",
          "type": "uint256",
          "internalType": "uint256"
        }
      ],
      "outputs": [],
      "stateMutability": "nonpayable"
    },
    {
      "type": "function",
      "name": "backendOperators",
      "inputs": [
        {
          "name": "",
          "type": "address",
          "internalType": "address"
        }
      ],
      "outputs": [
        {
          "name": "",
          "type": "bool",
          "internalType": "bool"
        }
      ],
      "stateMutability": "view"
    },
    {
      "type": "function",
      "name": "closeAccount",
      "inputs": [
        {
          "name": "accountId",
          "type": "uint256",
          "internalType": "uint256"
        }
      ],
      "outputs": [],
      "stateMutability": "nonpayable"
    },
    {
      "type": "function",
      "name": "createSpendAccount",
      "inputs": [
        {
          "name": "owner",
          "type": "address",
          "internalType": "address"
        },
        {
          "name": "label",
          "type": "string",
          "internalType": "string"
        },
        {
          "name": "budgetPerPeriod",
          "type": "uint256",
          "internalType": "uint256"
        },
        {
          "name": "periodDuration",
          "type": "uint256",
          "internalType": "uint256"
        },
        {
          "name": "perTxLimit",
          "type": "uint256",
          "internalType": "uint256"
        },
        {
          "name": "dailyLimit",
          "type": "uint256",
          "internalType": "uint256"
        },
        {
          "name": "approvalThreshold",
          "type": "uint256",
          "internalType": "uint256"
        },
        {
          "name": "approver",
          "type": "address",
          "internalType": "address"
        },
        {
          "name": "allowedChains",
          "type": "uint256[]",
          "internalType": "uint256[]"
        }
      ],
      "outputs": [
        {
          "name": "",
          "type": "uint256",
          "internalType": "uint256"
        }
      ],
      "stateMutability": "nonpayable"
    },
    {
      "type": "function",
      "name": "freezeAccount",
      "inputs": [
        {
          "name": "accountId",
          "type": "uint256",
          "internalType": "uint256"
        }
      ],
      "outputs": [],
      "stateMutability": "nonpayable"
    },
    {
      "type": "function",
      "name": "gatewayOrgId",
      "inputs": [],
      "outputs": [
        {
          "name": "",
          "type": "bytes32",
          "internalType": "bytes32"
        }
      ],
      "stateMutability": "view"
    },
    {
      "type": "function",
      "name": "gatewayWalletAddress",
      "inputs": [],
      "outputs": [
        {
          "name": "",
          "type": "address",
          "internalType": "address"
        }
      ],
      "stateMutability": "view"
    },
    {
      "type": "function",
      "name": "getAccount",
      "inputs": [
        {
          "name": "accountId",
          "type": "uint256",
          "internalType": "uint256"
        }
      ],
      "outputs": [
        {
          "name": "",
          "type": "tuple",
          "internalType": "struct Treasury.SpendAccount",
          "components": [
            {
              "name": "id",
              "type": "uint256",
              "internalType": "uint256"
            },
            {
              "name": "owner",
              "type": "address",
              "internalType": "address"
            },
            {
              "name": "label",
              "type": "string",
              "internalType": "string"
            },
            {
              "name": "budgetPerPeriod",
              "type": "uint256",
              "internalType": "uint256"
            },
            {
              "name": "periodStart",
              "type": "uint256",
              "internalType": "uint256"
            },
            {
              "name": "periodDuration",
              "type": "uint256",
              "internalType": "uint256"
            },
            {
              "name": "periodSpent",
              "type": "uint256",
              "internalType": "uint256"
            },
            {
              "name": "periodReserved",
              "type": "uint256",
              "internalType": "uint256"
            },
            {
              "name": "perTxLimit",
              "type": "uint256",
              "internalType": "uint256"
            },
            {
              "name": "dailyLimit",
              "type": "uint256",
              "internalType": "uint256"
            },
            {
              "name": "dailySpent",
              "type": "uint256",
              "internalType": "uint256"
            },
            {
              "name": "dailyReserved",
              "type": "uint256",
              "internalType": "uint256"
            },
            {
              "name": "lastDayTimestamp",
              "type": "uint256",
              "internalType": "uint256"
            },
            {
              "name": "approvalThreshold",
              "type": "uint256",
              "internalType": "uint256"
            },
            {
              "name": "approver",
              "type": "address",
              "internalType": "address"
            },
            {
              "name": "minBalance",
              "type": "uint256",
              "internalType": "uint256"
            },
            {
              "name": "targetBalance",
              "type": "uint256",
              "internalType": "uint256"
            },
            {
              "name": "status",
              "type": "uint8",
              "internalType": "enum Treasury.AccountStatus"
            },
            {
              "name": "allowedChains",
              "type": "uint256[]",
              "internalType": "uint256[]"
            },
            {
              "name": "createdAt",
              "type": "uint256",
              "internalType": "uint256"
            },
            {
              "name": "updatedAt",
              "type": "uint256",
              "internalType": "uint256"
            }
          ]
        }
      ],
      "stateMutability": "view"
    },
    {
      "type": "function",
      "name": "getAccountCount",
      "inputs": [],
      "outputs": [
        {
          "name": "",
          "type": "uint256",
          "internalType": "uint256"
        }
      ],
      "stateMutability": "view"
    },
    {
      "type": "function",
      "name": "getRequest",
      "inputs": [
        {
          "name": "requestId",
          "type": "uint256",
          "internalType": "uint256"
        }
      ],
      "outputs": [
        {
          "name": "",
          "type": "tuple",
          "internalType": "struct Treasury.SpendRequest",
          "components": [
            {
              "name": "id",
              "type": "uint256",
              "internalType": "uint256"
            },
            {
              "name": "accountId",
              "type": "uint256",
              "internalType": "uint256"
            },
            {
              "name": "requester",
              "type": "address",
              "internalType": "address"
            },
            {
              "name": "amount",
              "type": "uint256",
              "internalType": "uint256"
            },
            {
              "name": "chainId",
              "type": "uint256",
              "internalType": "uint256"
            },
            {
              "name": "destinationAddress",
              "type": "address",
              "internalType": "address"
            },
            {
              "name": "description",
              "type": "string",
              "internalType": "string"
            },
            {
              "name": "status",
              "type": "uint8",
              "internalType": "enum Treasury.SpendStatus"
            },
            {
              "name": "requestedAt",
              "type": "uint256",
              "internalType": "uint256"
            },
            {
              "name": "approvedAt",
              "type": "uint256",
              "internalType": "uint256"
            },
            {
              "name": "executedAt",
              "type": "uint256",
              "internalType": "uint256"
            },
            {
              "name": "gatewayTxId",
              "type": "string",
              "internalType": "string"
            }
          ]
        }
      ],
      "stateMutability": "view"
    },
    {
      "type": "function",
      "name": "getRequestCount",
      "inputs": [],
      "outputs": [
        {
          "name": "",
          "type": "uint256",
          "internalType": "uint256"
        }
      ],
      "stateMutability": "view"
    },
    {
      "type": "function",
      "name": "isPeriodEnded",
      "inputs": [
        {
          "name": "accountId",
          "type": "uint256",
          "internalType": "uint256"
        }
      ],
      "outputs": [
        {
          "name": "",
          "type": "bool",
          "internalType": "bool"
        }
      ],
      "stateMutability": "view"
    },
    {
      "type": "function",
      "name": "managers",
      "inputs": [
        {
          "name": "",
          "type": "address",
          "internalType": "address"
        }
      ],
      "outputs": [
        {
          "name": "",
          "type": "bool",
          "internalType": "bool"
        }
      ],
      "stateMutability": "view"
    },
    {
      "type": "function",
      "name": "markSpendExecuted",
      "inputs": [
        {
          "name": "requestId",
          "type": "uint256",
          "internalType": "uint256"
        },
        {
          "name": "gatewayTxId",
          "type": "string",
          "internalType": "string"
        }
      ],
      "outputs": [],
      "stateMutability": "nonpayable"
    },
    {
      "type": "function",
      "name": "markSpendFailed",
      "inputs": [
        {
          "name": "requestId",
          "type": "uint256",
          "internalType": "uint256"
        },
        {
          "name": "reason",
          "type": "string",
          "internalType": "string"
        }
      ],
      "outputs": [],
      "stateMutability": "nonpayable"
    },
    {
      "type": "function",
      "name": "nextAccountId",
      "inputs": [],
      "outputs": [
        {
          "name": "",
          "type": "uint256",
          "internalType": "uint256"
        }
      ],
      "stateMutability": "view"
    },
    {
      "type": "function",
      "name": "nextRequestId",
      "inputs": [],
      "outputs": [
        {
          "name": "",
          "type": "uint256",
          "internalType": "uint256"
        }
      ],
      "stateMutability": "view"
    },
    {
      "type": "function",
      "name": "pause",
      "inputs": [],
      "outputs": [],
      "stateMutability": "nonpayable"
    },
    {
      "type": "function",
      "name": "paused",
      "inputs": [],
      "outputs": [
        {
          "name": "",
          "type": "bool",
          "internalType": "bool"
        }
      ],
      "stateMutability": "view"
    },
    {
      "type": "function",
      "name": "recordInboundFunding",
      "inputs": [
        {
          "name": "amount",
          "type": "uint256",
          "internalType": "uint256"
        },
        {
          "name": "gatewayTxId",
          "type": "string",
          "internalType": "string"
        }
      ],
      "outputs": [],
      "stateMutability": "nonpayable"
    },
    {
      "type": "function",
      "name": "recordOutboundFunding",
      "inputs": [
        {
          "name": "amount",
          "type": "uint256",
          "internalType": "uint256"
        },
        {
          "name": "gatewayTxId",
          "type": "string",
          "internalType": "string"
        }
      ],
      "outputs": [],
      "stateMutability": "nonpayable"
    },
    {
      "type": "function",
      "name": "rejectSpend",
      "inputs": [
        {
          "name": "requestId",
          "type": "uint256",
          "internalType": "uint256"
        },
        {
          "name": "reason",
          "type": "string",
          "internalType": "string"
        }
      ],
      "outputs": [],
      "stateMutability": "nonpayable"
    },
    {
      "type": "function",
      "name": "removeBackendOperator",
      "inputs": [
        {
          "name": "operator",
          "type": "address",
          "internalType": "address"
        }
      ],
      "outputs": [],
      "stateMutability": "nonpayable"
    },
    {
      "type": "function",
      "name": "removeManager",
      "inputs": [
        {
          "name": "manager",
          "type": "address",
          "internalType": "address"
        }
      ],
      "outputs": [],
      "stateMutability": "nonpayable"
    },
    {
      "type": "function",
      "name": "requestSpend",
      "inputs": [
        {
          "name": "accountId",
          "type": "uint256",
          "internalType": "uint256"
        },
        {
          "name": "amount",
          "type": "uint256",
          "internalType": "uint256"
        },
        {
          "name": "chainId",
          "type": "uint256",
          "internalType": "uint256"
        },
        {
          "name": "destinationAddress",
          "type": "address",
          "internalType": "address"
        },
        {
          "name": "description",
          "type": "string",
          "internalType": "string"
        }
      ],
      "outputs": [
        {
          "name": "",
          "type": "uint256",
          "internalType": "uint256"
        }
      ],
      "stateMutability": "nonpayable"
    },
    {
      "type": "function",
      "name": "resetPeriod",
      "inputs": [
        {
          "name": "accountId",
          "type": "uint256",
          "internalType": "uint256"
        }
      ],
      "outputs": [],
      "stateMutability": "nonpayable"
    },
    {
      "type": "function",
      "name": "setAutoTopupConfig",
      "inputs": [
        {
          "name": "accountId",
          "type": "uint256",
          "internalType": "uint256"
        },
        {
          "name": "minBalance",
          "type": "uint256",
          "internalType": "uint256"
        },
        {
          "name": "targetBalance",
          "type": "uint256",
          "internalType": "uint256"
        }
      ],
      "outputs": [],
      "stateMutability": "nonpayable"
    },
    {
      "type": "function",
      "name": "setChainSupport",
      "inputs": [
        {
          "name": "chainId",
          "type": "uint256",
          "internalType": "uint256"
        },
        {
          "name": "supported",
          "type": "bool",
          "internalType": "bool"
        }
      ],
      "outputs": [],
      "stateMutability": "nonpayable"
    },
    {
      "type": "function",
      "name": "setGatewayConfig",
      "inputs": [
        {
          "name": "orgId",
          "type": "bytes32",
          "internalType": "bytes32"
        },
        {
          "name": "walletAddress",
          "type": "address",
          "internalType": "address"
        }
      ],
      "outputs": [],
      "stateMutability": "nonpayable"
    },
    {
      "type": "function",
      "name": "spendAccounts",
      "inputs": [
        {
          "name": "",
          "type": "uint256",
          "internalType": "uint256"
        }
      ],
      "outputs": [
        {
          "name": "id",
          "type": "uint256",
          "internalType": "uint256"
        },
        {
          "name": "owner",
          "type": "address",
          "internalType": "address"
        },
        {
          "name": "label",
          "type": "string",
          "internalType": "string"
        },
        {
          "name": "budgetPerPeriod",
          "type": "uint256",
          "internalType": "uint256"
        },
        {
          "name": "periodStart",
          "type": "uint256",
          "internalType": "uint256"
        },
        {
          "name": "periodDuration",
          "type": "uint256",
          "internalType": "uint256"
        },
        {
          "name": "periodSpent",
          "type": "uint256",
          "internalType": "uint256"
        },
        {
          "name": "periodReserved",
          "type": "uint256",
          "internalType": "uint256"
        },
        {
          "name": "perTxLimit",
          "type": "uint256",
          "internalType": "uint256"
        },
        {
          "name": "dailyLimit",
          "type": "uint256",
          "internalType": "uint256"
        },
        {
          "name": "dailySpent",
          "type": "uint256",
          "internalType": "uint256"
        },
        {
          "name": "dailyReserved",
          "type": "uint256",
          "internalType": "uint256"
        },
        {
          "name": "lastDayTimestamp",
          "type": "uint256",
          "internalType": "uint256"
        },
        {
          "name": "approvalThreshold",
          "type": "uint256",
          "internalType": "uint256"
        },
        {
          "name": "approver",
          "type": "address",
          "internalType": "address"
        },
        {
          "name": "minBalance",
          "type": "uint256",
          "internalType": "uint256"
        },
        {
          "name": "targetBalance",
          "type": "uint256",
          "internalType": "uint256"
        },
        {
          "name": "status",
          "type": "uint8",
          "internalType": "enum Treasury.AccountStatus"
        },
        {
          "name": "createdAt",
          "type": "uint256",
          "internalType": "uint256"
        },
        {
          "name": "updatedAt",
          "type": "uint256",
          "internalType": "uint256"
        }
      ],
      "stateMutability": "view"
    },
    {
      "type": "function",
      "name": "spendRequests",
      "inputs": [
        {
          "name": "",
          "type": "uint256",
          "internalType": "uint256"
        }
      ],
      "outputs": [
        {
          "name": "id",
          "type": "uint256",
          "internalType": "uint256"
        },
        {
          "name": "accountId",
          "type": "uint256",
          "internalType": "uint256"
        },
        {
          "name": "requester",
          "type": "address",
          "internalType": "address"
        },
        {
          "name": "amount",
          "type": "uint256",
          "internalType": "uint256"
        },
        {
          "name": "chainId",
          "type": "uint256",
          "internalType": "uint256"
        },
        {
          "name": "destinationAddress",
          "type": "address",
          "internalType": "address"
        },
        {
          "name": "description",
          "type": "string",
          "internalType": "string"
        },
        {
          "name": "status",
          "type": "uint8",
          "internalType": "enum Treasury.SpendStatus"
        },
        {
          "name": "requestedAt",
          "type": "uint256",
          "internalType": "uint256"
        },
        {
          "name": "approvedAt",
          "type": "uint256",
          "internalType": "uint256"
        },
        {
          "name": "executedAt",
          "type": "uint256",
          "internalType": "uint256"
        },
        {
          "name": "gatewayTxId",
          "type": "string",
          "internalType": "string"
        }
      ],
      "stateMutability": "view"
    },
    {
      "type": "function",
      "name": "supportedChains",
      "inputs": [
        {
          "name": "",
          "type": "uint256",
          "internalType": "uint256"
        }
      ],
      "outputs": [
        {
          "name": "",
          "type": "bool",
          "internalType": "bool"
        }
      ],
      "stateMutability": "view"
    },
    {
      "type": "function",
      "name": "sweepAccount",
      "inputs": [
        {
          "name": "accountId",
          "type": "uint256",
          "internalType": "uint256"
        }
      ],
      "outputs": [],
      "stateMutability": "nonpayable"
    },
    {
      "type": "function",
      "name": "totalCommittedBudget",
      "inputs": [],
      "outputs": [
        {
          "name": "",
          "type": "uint256",
          "internalType": "uint256"
        }
      ],
      "stateMutability": "view"
    },
    {
      "type": "function",
      "name": "transferAdmin",
      "inputs": [
        {
          "name": "newAdmin",
          "type": "address",
          "internalType": "address"
        }
      ],
      "outputs": [],
      "stateMutability": "nonpayable"
    },
    {
      "type": "function",
      "name": "unfreezeAccount",
      "inputs": [
        {
          "name": "accountId",
          "type": "uint256",
          "internalType": "uint256"
        }
      ],
      "outputs": [],
      "stateMutability": "nonpayable"
    },
    {
      "type": "function",
      "name": "unpause",
      "inputs": [],
      "outputs": [],
      "stateMutability": "nonpayable"
    },
    {
      "type": "function",
      "name": "updateAllowedChains",
      "inputs": [
        {
          "name": "accountId",
          "type": "uint256",
          "internalType": "uint256"
        },
        {
          "name": "allowedChains",
          "type": "uint256[]",
          "internalType": "uint256[]"
        }
      ],
      "outputs": [],
      "stateMutability": "nonpayable"
    },
    {
      "type": "function",
      "name": "updateSpendAccount",
      "inputs": [
        {
          "name": "accountId",
          "type": "uint256",
          "internalType": "uint256"
        },
        {
          "name": "budgetPerPeriod",
          "type": "uint256",
          "internalType": "uint256"
        },
        {
          "name": "perTxLimit",
          "type": "uint256",
          "internalType": "uint256"
        },
        {
          "name": "dailyLimit",
          "type": "uint256",
          "internalType": "uint256"
        },
        {
          "name": "approvalThreshold",
          "type": "uint256",
          "internalType": "uint256"
        },
        {
          "name": "approver",
          "type": "address",
          "internalType": "address"
        }
      ],
      "outputs": [],
      "stateMutability": "nonpayable"
    },
    {
      "type": "event",
      "name": "AdminTransferred",
      "inputs": [
        {
          "name": "previousAdmin",
          "type": "address",
          "indexed": true,
          "internalType": "address"
        },
        {
          "name": "newAdmin",
          "type": "address",
          "indexed": true,
          "internalType": "address"
        }
      ],
      "anonymous": false
    },
    {
      "type": "event",
      "name": "AutoTopup",
      "inputs": [
        {
          "name": "accountId",
          "type": "uint256",
          "indexed": true,
          "internalType": "uint256"
        },
        {
          "name": "amount",
          "type": "uint256",
          "indexed": false,
          "internalType": "uint256"
        }
      ],
      "anonymous": false
    },
    {
      "type": "event",
      "name": "BackendOperatorAdded",
      "inputs": [
        {
          "name": "operator",
          "type": "address",
          "indexed": true,
          "internalType": "address"
        }
      ],
      "anonymous": false
    },
    {
      "type": "event",
      "name": "BackendOperatorRemoved",
      "inputs": [
        {
          "name": "operator",
          "type": "address",
          "indexed": true,
          "internalType": "address"
        }
      ],
      "anonymous": false
    },
    {
      "type": "event",
      "name": "ChainSupportUpdated",
      "inputs": [
        {
          "name": "chainId",
          "type": "uint256",
          "indexed": false,
          "internalType": "uint256"
        },
        {
          "name": "supported",
          "type": "bool",
          "indexed": false,
          "internalType": "bool"
        }
      ],
      "anonymous": false
    },
    {
      "type": "event",
      "name": "ContractPaused",
      "inputs": [],
      "anonymous": false
    },
    {
      "type": "event",
      "name": "ContractUnpaused",
      "inputs": [],
      "anonymous": false
    },
    {
      "type": "event",
      "name": "GatewayConfigUpdated",
      "inputs": [
        {
          "name": "orgId",
          "type": "bytes32",
          "indexed": false,
          "internalType": "bytes32"
        },
        {
          "name": "walletAddress",
          "type": "address",
          "indexed": false,
          "internalType": "address"
        }
      ],
      "anonymous": false
    },
    {
      "type": "event",
      "name": "InboundFunding",
      "inputs": [
        {
          "name": "amount",
          "type": "uint256",
          "indexed": false,
          "internalType": "uint256"
        },
        {
          "name": "gatewayTxId",
          "type": "string",
          "indexed": false,
          "internalType": "string"
        },
        {
          "name": "timestamp",
          "type": "uint256",
          "indexed": false,
          "internalType": "uint256"
        }
      ],
      "anonymous": false
    },
    {
      "type": "event",
      "name": "ManagerAdded",
      "inputs": [
        {
          "name": "manager",
          "type": "address",
          "indexed": true,
          "internalType": "address"
        }
      ],
      "anonymous": false
    },
    {
      "type": "event",
      "name": "ManagerRemoved",
      "inputs": [
        {
          "name": "manager",
          "type": "address",
          "indexed": true,
          "internalType": "address"
        }
      ],
      "anonymous": false
    },
    {
      "type": "event",
      "name": "OutboundFunding",
      "inputs": [
        {
          "name": "amount",
          "type": "uint256",
          "indexed": false,
          "internalType": "uint256"
        },
        {
          "name": "gatewayTxId",
          "type": "string",
          "indexed": false,
          "internalType": "string"
        },
        {
          "name": "timestamp",
          "type": "uint256",
          "indexed": false,
          "internalType": "uint256"
        }
      ],
      "anonymous": false
    },
    {
      "type": "event",
      "name": "PeriodReset",
      "inputs": [
        {
          "name": "accountId",
          "type": "uint256",
          "indexed": true,
          "internalType": "uint256"
        },
        {
          "name": "newPeriodStart",
          "type": "uint256",
          "indexed": false,
          "internalType": "uint256"
        },
        {
          "name": "previousSpent",
          "type": "uint256",
          "indexed": false,
          "internalType": "uint256"
        }
      ],
      "anonymous": false
    },
    {
      "type": "event",
      "name": "SpendAccountClosed",
      "inputs": [
        {
          "name": "accountId",
          "type": "uint256",
          "indexed": true,
          "internalType": "uint256"
        }
      ],
      "anonymous": false
    },
    {
      "type": "event",
      "name": "SpendAccountCreated",
      "inputs": [
        {
          "name": "accountId",
          "type": "uint256",
          "indexed": true,
          "internalType": "uint256"
        },
        {
          "name": "owner",
          "type": "address",
          "indexed": true,
          "internalType": "address"
        },
        {
          "name": "label",
          "type": "string",
          "indexed": false,
          "internalType": "string"
        },
        {
          "name": "budgetPerPeriod",
          "type": "uint256",
          "indexed": false,
          "internalType": "uint256"
        }
      ],
      "anonymous": false
    },
    {
      "type": "event",
      "name": "SpendAccountFrozen",
      "inputs": [
        {
          "name": "accountId",
          "type": "uint256",
          "indexed": true,
          "internalType": "uint256"
        }
      ],
      "anonymous": false
    },
    {
      "type": "event",
      "name": "SpendAccountUnfrozen",
      "inputs": [
        {
          "name": "accountId",
          "type": "uint256",
          "indexed": true,
          "internalType": "uint256"
        }
      ],
      "anonymous": false
    },
    {
      "type": "event",
      "name": "SpendAccountUpdated",
      "inputs": [
        {
          "name": "accountId",
          "type": "uint256",
          "indexed": true,
          "internalType": "uint256"
        }
      ],
      "anonymous": false
    },
    {
      "type": "event",
      "name": "SpendApproved",
      "inputs": [
        {
          "name": "requestId",
          "type": "uint256",
          "indexed": true,
          "internalType": "uint256"
        },
        {
          "name": "accountId",
          "type": "uint256",
          "indexed": true,
          "internalType": "uint256"
        },
        {
          "name": "approver",
          "type": "address",
          "indexed": false,
          "internalType": "address"
        },
        {
          "name": "amount",
          "type": "uint256",
          "indexed": false,
          "internalType": "uint256"
        }
      ],
      "anonymous": false
    },
    {
      "type": "event",
      "name": "SpendExecuted",
      "inputs": [
        {
          "name": "requestId",
          "type": "uint256",
          "indexed": true,
          "internalType": "uint256"
        },
        {
          "name": "accountId",
          "type": "uint256",
          "indexed": true,
          "internalType": "uint256"
        },
        {
          "name": "amount",
          "type": "uint256",
          "indexed": false,
          "internalType": "uint256"
        },
        {
          "name": "gatewayTxId",
          "type": "string",
          "indexed": false,
          "internalType": "string"
        }
      ],
      "anonymous": false
    },
    {
      "type": "event",
      "name": "SpendFailed",
      "inputs": [
        {
          "name": "requestId",
          "type": "uint256",
          "indexed": true,
          "internalType": "uint256"
        },
        {
          "name": "accountId",
          "type": "uint256",
          "indexed": true,
          "internalType": "uint256"
        },
        {
          "name": "reason",
          "type": "string",
          "indexed": false,
          "internalType": "string"
        }
      ],
      "anonymous": false
    },
    {
      "type": "event",
      "name": "SpendRejected",
      "inputs": [
        {
          "name": "requestId",
          "type": "uint256",
          "indexed": true,
          "internalType": "uint256"
        },
        {
          "name": "accountId",
          "type": "uint256",
          "indexed": true,
          "internalType": "uint256"
        },
        {
          "name": "approver",
          "type": "address",
          "indexed": false,
          "internalType": "address"
        },
        {
          "name": "reason",
          "type": "string",
          "indexed": false,
          "internalType": "string"
        }
      ],
      "anonymous": false
    },
    {
      "type": "event",
      "name": "SpendRequested",
      "inputs": [
        {
          "name": "requestId",
          "type": "uint256",
          "indexed": true,
          "internalType": "uint256"
        },
        {
          "name": "accountId",
          "type": "uint256",
          "indexed": true,
          "internalType": "uint256"
        },
        {
          "name": "requester",
          "type": "address",
          "indexed": true,
          "internalType": "address"
        },
        {
          "name": "amount",
          "type": "uint256",
          "indexed": false,
          "internalType": "uint256"
        },
        {
          "name": "chainId",
          "type": "uint256",
          "indexed": false,
          "internalType": "uint256"
        },
        {
          "name": "destinationAddress",
          "type": "address",
          "indexed": false,
          "internalType": "address"
        }
      ],
      "anonymous": false
    },
    {
      "type": "event",
      "name": "SweepExecuted",
      "inputs": [
        {
          "name": "accountId",
          "type": "uint256",
          "indexed": true,
          "internalType": "uint256"
        },
        {
          "name": "amount",
          "type": "uint256",
          "indexed": false,
          "internalType": "uint256"
        }
      ],
      "anonymous": false
    },
    {
      "type": "error",
      "name": "ReentrancyGuardReentrantCall",
      "inputs": []
    }
  ],
  "bytecode": {
    "object": "0x6080346100dd57601f6138b338819003918201601f19168301916001600160401b038311848410176100e15780849260409485528339810103126100dd57610052602061004b836100f5565b92016100f5565b9060015f5561006081610109565b61006982610109565b600180546001600160a01b039283166001600160a01b031991821617825560058054949093169316929092179055624cef525f52600b6020527f51d88817ca1240c0a28bed8d31d57e754a047c5048076c17a5c1b136878bd8d5805460ff1916909117905560405161376290816101518239f35b5f80fd5b634e487b7160e01b5f52604160045260245ffd5b51906001600160a01b03821682036100dd57565b6001600160a01b03161561011957565b60405162461bcd60e51b815260206004820152600f60248201526e496e76616c6964206164647265737360881b6044820152606490fdfe6101606040526004361015610012575f80fd5b5f3560e01c8063052e261514612d3f5780631317369614612d2257806313b2e65714612c6a5780631c8d4dd2146129ba57806327f3dc6e146128545780632838383e146125ea5780632bf736ef146121105780632d06177a14612052578063390724621461164c5780633f4ba83a1461200a5780633fad183414611a435780634704710714611f59578063496c8ada14611e695780634b9375fa14611e2c5780634d7869a014611d6c578063548d496f14611d3d578063586226a214611bf45780635c975abb14611bd257806360c9058214611aa357806363750df014611a7b5780636464e58f14611a605780636a84a98514611a4357806375829def146119965780637809f90f146119645780637a987867146118635780638456cb59146118185780638e658bc8146117955780639201ea0a14611790578063a2f628e414611790578063a2ffea1d14611669578063a98e4e771461164c578063aaf992d91461160d578063ac18de431461155e578063ad453b6f1461137f578063b708272014611362578063b810f87914611186578063b866cd1d14610c49578063bbad58ee14610c2e578063c24e04af14610a9f578063c58343ef146108c6578063ce88b1451461056f578063d5e4448914610400578063d7e3e65514610393578063de3dac84146102fb578063ec93dee314610288578063f851a440146102605763fdff9b4d1461021f575f80fd5b3461025c57602036600319011261025c576001600160a01b03610240612e49565b165f526002602052602060ff60405f2054166040519015158152f35b5f80fd5b3461025c575f36600319011261025c576001546040516001600160a01b039091168152602090f35b3461025c57604036600319011261025c5760043560243580151580910361025c577f3867ef478c2fcf9f1d860353178b53a6a5b10cdee0ab40aacda7ca6b38b86d73916040916102d6613563565b815f52600b602052825f2060ff1981541660ff831617905582519182526020820152a1005b3461025c57602036600319011261025c576004356103176134ab565b6103208161351a565b805f52600660205260405f206011810160ff815416600381101561037f5761034890156133e4565b600160ff198254161790556014429101557fdc77cc48be1498455e9f3fd5d6ba7a24d7cfe78d71b5b08527786f9f11a5510d5f80a2005b634e487b7160e01b5f52602160045260245ffd5b3461025c577fc20f3686aab8eab137271a4cf31c5b1de1f55af36ae85116e968edae3d1650b96103f06103c536612e8c565b9290916103d06135ef565b831515806103f5575b6103e2906131c6565b604051938493429285613341565b0390a1005b5060808411156103d9565b3461025c57602036600319011261025c5760043561041c6134ab565b6104258161351a565b805f52600660205260405f2060ff601182015416600381101561037f5760021461052a5761046761045f60048301546005840154906130b7565b4210156130d8565b61047a60068201546007830154906130b7565b6003820180549091808211156105225761049391613117565b80156104e9577fab9277fb0dd33811aa218f4f913e6ae94941b64e8d5be03e8b22722db16616f1926020926104ca83600a54613117565b600a556104d8838254613117565b9055601442910155604051908152a2005b60405162461bcd60e51b815260206004820152601160248201527004e6f2066756e647320746f20737765657607c1b6044820152606490fd5b50505f610493565b60405162461bcd60e51b815260206004820152601b60248201527f43616e6e6f7420737765657020636c6f736564206163636f756e7400000000006044820152606490fd5b3461025c57602036600319011261025c575f61028060405161059081612f43565b828152826020820152606060408201528260608201528260808201528260a08201528260c08201528260e08201528261010082015282610120820152826101408201528261016082015282610180820152826101a0820152826101c0820152826101e0820152826102008201528261022082015260606102408201528261026082015201526004355f52600660205260405f2060405161062f81612f43565b8154815260018201546001600160a01b0316602082015261065260028301612f80565b6040820152600382810154606083015260048301546080830152600583015460a0830152600683015460c0830152600783015460e083015260088301546101008301526009830154610120830152600a830154610140830152600b830154610160830152600c830154610180830152600d8301546101a0830152600e8301546001600160a01b03166101c0830152600f8301546101e08301526010830154610200830152601183015460ff169081101561037f57610220820152604051918260206012830154948581520193601283015f5260205f20905f5b8181106108b05750505061074481601494950382612f5f565b610240840152601381015461026084015201546102808201526040805160208082528351818301528301516001600160a01b031681830152908201516102a06060830152610797906102c0830190613020565b60608301516080830152608083015160a083015260a083015160c083015260c083015160e083015260e08301516101008301526101008301516101208301526101208301516101408301526101408301516101608301526101608301516101808301526101808301516101a08301526101a08301516101c083015260018060a01b036101c0840151166101e08301526101e083015161020083015261020083015161022083015261085261022084015161024084019061306d565b61024083015190601f1983820301610260840152602080835192838152019201905f5b81811061089a5750505061028083610260849501518285015201516102a08301520390f35b8251845260209384019390920191600101610875565b825487526020909601956001928301920161072b565b3461025c57602036600319011261025c5760606101606040516108e881612f27565b5f81525f60208201525f60408201525f838201525f60808201525f60a08201528260c08201525f60e08201525f6101008201525f6101208201525f61014082015201526004355f52600860205260405f2060405161094581612f27565b8154815260018201546020820190815260028301546001600160a01b0390811660408401908152600385015460608501908152600486015460808601908152600587015490931660a08601908152939591926109a360068401612f80565b60c0870190815260ff6007850154169560e0880196600581101561037f57875260088501549261010089019384526009860154946101208a01958652600a870154966101408b01978852600b016109f990612f80565b976101608b019889526040519b8c9b60208d525160208d01525160408c0152600160a01b6001900390511660608b01525160808a01525160a0890152600160a01b6001900390511660c08801525160e0870161018090526101a08701610a5e91613020565b94516101008701610a6e91613044565b51610120860152516101408501525161016084015251828203601f1901610180840152610a9b9190613020565b0390f35b3461025c57602036600319011261025c576004355f908152600660205260409020805460018201546001600160a01b03166101205290610ae160028201612f80565b6101405260038101546101005280806004810154936005820154600683015460078401546008850154600986015490600a87015492600b88015494600c89015496600d8a01549860146010600f8d600e60018060a01b03910154169d01549d01549d60ff601182015416608052601381015460a052015460e05260405160c05260c0515261012051602060c0510152610280604060c0510152610b8d61028060c0510161014051613020565b9c61010051606060c0510152608060c051015260a060c051015260c08051015260e060c051015261010060c051015261012060c051015261014060c051015261016060c051015261018060c05101526101a060c05101526101c060c05101526101e060c051015261020060c0510152610c0e61022060c0510160805161306d565b60a05161024060c051015260e05161026060c051015260c051900360c051f35b3461025c575f36600319011261025c57602060405160808152f35b3461025c5760a036600319011261025c576064356044356001600160a01b03821660243560043582850361025c57608435926001600160401b03841161025c57610c9a610cb3943690600401612e5f565b949096610ca56135a9565b610cae8461351a565b6136e5565b610cbb61368c565b815f52600660205260405f209460ff601187015416600381101561037f57610ce390156133e4565b60018601546001600160a01b0316330361114d5761010085116111115783156110d7576008860154841161109b57805f52600b60205260ff60405f205416156110565760128601805496905f805b8981101561104757825f52848160205f20015414610d5157600101610d31565b5050509091929394955060015b1561100257610d6c846136aa565b600a810154610d99610d8d87610d88600b8601948554906130b7565b6130b7565b60098401541015613469565b6006820154610dc1610db588610d8860078701948554906130b7565b60038501541015613425565b60095497610dce89613333565b6009555f898152600860205260409020898155600181018890556002810180546001600160a01b03199081163317909155600382018a905560048201879055600582018054909116881790559060068201906001600160401b038111610fee578060209c610e3c8454612eef565b601f8111610fb4575b505f90601f8311600114610f4e575f92610f43575b50508160011b915f199060031b1c19161790555b426008820155600d8401548811610f2f5760078101600160ff19825416179055600942910155610e9f8782546130b7565b9055610eac8682546130b7565b905542601491909101556040805130815260208101869052849187917f25d9214cc6974bd7ee10490e3c6c2dbc76ec40edb58ac91724facd58635a52889190a35b604051938452858401526040830152827f43f99ee570c3f4629ea24b9c5fce36cdf3322501329955991590afff2037262460603394a460015f55604051908152f35b600701805460ff1916905550610eed915050565b013590508d80610e5a565b909150601f19831691845f528e5f20925f5b818110610f9c5750908460019594939210610f83575b505050811b019055610e6e565b01355f19600384901b60f8161c191690558d8080610f76565b91936020600181928787013581550195019201610f60565b610fde90855f528f5f20601f850160051c81019160208610610fe4575b601f0160051c019061324d565b8e610e45565b9091508190610fd1565b634e487b7160e01b5f52604160045260245ffd5b60405162461bcd60e51b815260206004820152601d60248201527f436861696e206e6f7420616c6c6f77656420666f72206163636f756e740000006044820152606490fd5b50919293949596975050610d5e565b60405162461bcd60e51b815260206004820152601c60248201527f436861696e206e6f7420676c6f62616c6c7920737570706f72746564000000006044820152606490fd5b60405162461bcd60e51b8152602060048201526014602482015273115e18d959591cc81c195c8b5d1e081b1a5b5a5d60621b6044820152606490fd5b60405162461bcd60e51b81526020600482015260126024820152710416d6f756e74206d757374206265203e20360741b6044820152606490fd5b60405162461bcd60e51b81526020600482015260146024820152734465736372697074696f6e20746f6f206c6f6e6760601b6044820152606490fd5b60405162461bcd60e51b81526020600482015260116024820152702737ba1030b1b1b7bab73a1037bbb732b960791b6044820152606490fd5b3461025c57602036600319011261025c576004356111a26134ab565b6111ab8161351a565b805f52600660205260405f2060ff601182015416600381101561037f576111d290156133e4565b600f8101549081151580611355575b15611310576111f960068201546007830154906130b7565b9060038101928354928084115f14611308576112159084613117565b905b8110156112cb57601082015490808211156112c25761123591613117565b905b811561128b577f7a3bb30f501fe13ea8c361d954864be2ce464eaabddb278bcbaf6a2524281f529361126b836020956130b7565b905561127982600a546130b7565b600a55601442910155604051908152a2005b60405162461bcd60e51b815260206004820152600f60248201526e139bc81d1bdc1d5c081b9959591959608a1b6044820152606490fd5b50505f90611237565b60405162461bcd60e51b815260206004820152601560248201527442616c616e63652061626f7665206d696e696d756d60581b6044820152606490fd5b505f90611217565b60405162461bcd60e51b815260206004820152601960248201527f4175746f2d746f707570206e6f7420636f6e66696775726564000000000000006044820152606490fd5b50601081015415156111e1565b3461025c575f36600319011261025c576020600454604051908152f35b3461025c57602036600319011261025c5760043561139b6135a9565b6113a481613643565b6113ac61368c565b805f52600860205260405f209060018201918254805f52600660205260405f209360018060a01b03600e860154163314801561154a575b1561150557600783019460ff865416600581101561037f5761140590156133a2565b60ff60118201541693600385101561037f5761144e6114fc946114497f25d9214cc6974bd7ee10490e3c6c2dbc76ec40edb58ac91724facd58635a528897156133e4565b6136aa565b600682015461146360078401918254906130b7565b9160038101986114846114788b5480966130b7565b60038701541015613425565b6114ac6114a0600a87015495610d88600b8901978854906130b7565b60098701541015613469565b600160ff198254161790556009429101556114c9885482546130b7565b90556114d7875482546130b7565b9055426014919091015554935460408051338152602081019290925290918291820190565b0390a360015f55005b60405162461bcd60e51b815260206004820152601960248201527f4e6f7420617574686f72697a656420746f20617070726f7665000000000000006044820152606490fd5b506001546001600160a01b031633146113e3565b3461025c57602036600319011261025c57611577612e49565b61157f613563565b6001600160a01b03165f8181526002602052604090205460ff16156115d857805f52600260205260405f2060ff1981541690557fef69f7d97228658c92417be1b16b19058315de71fecb435d07b7d23728b6bd315f80a2005b60405162461bcd60e51b815260206004820152600d60248201526c2737ba10309036b0b730b3b2b960991b6044820152606490fd5b3461025c57602036600319011261025c576004355f526006602052602061164160405f2060056004820154910154906130b7565b421015604051908152f35b3461025c575f36600319011261025c576020600754604051908152f35b3461025c5761167736612e8c565b919061168282613643565b815f52600860205260405f2090600182019182545f52600660205260405f206116af610100871115613364565b600e01546001600160a01b03163314801561177c575b15611737576007019160ff83541692600584101561037f576117087f2241263b59f9105b3bd26df09cc867aeaf7d1fee5e22d3e0797d27fa854e3ecc94156133a2565b600260ff198254161790555493611732604051928392338452604060208501526040840191613263565b0390a3005b60405162461bcd60e51b815260206004820152601860248201527f4e6f7420617574686f72697a656420746f2072656a65637400000000000000006044820152606490fd5b506001546001600160a01b031633146116c5565b613051565b3461025c57604036600319011261025c576024356001600160a01b0381169060043582820361025c577fc969eaca4c4aa26878c8710a794a787d1fb3ed4488f4256eb82e79359654c8fb926117ee604093610cae613563565b81600455806bffffffffffffffffffffffff60a01b600554161760055582519182526020820152a1005b3461025c575f36600319011261025c57611830613563565b600160ff19600c541617600c557fab35696f06e428ebc5ceba8cd17f8fed287baf43440206d1943af1ee53e6d2675f80a1005b3461025c5761187136612e8c565b919061187b6135ef565b61188482613643565b815f52600860205260405f20906001820180545f52600660205260405f206118b0610100871115613364565b600784019360ff85541690600582101561037f577f3a2badb7874ac04a55de08b2a5acd747ee8dbf5a9cca933f8d2a220e05167516956118f460016003941461320a565b600460ff1982541617905501805461191160078401918254613117565b905561191d83546136aa565b600b8201908154905480821015611951575b5050506014429101555493611732604051928392602084526020840191613263565b61195a91613117565b905586808061192f565b3461025c577f75c58448f11a744fb5736045c55dc82cacecb2e8b8e99c49be7b07579782feba6103f06103c536612e8c565b3461025c57602036600319011261025c576119af612e49565b6119b7613563565b6119c0816136e5565b6001546001600160a01b0391821691811690828214611a0e576001600160a01b03191682176001557ff8ccb027dfcd135e000e9d45e6cc2d662578a8825d4c45b5e32e0adf67e79ec65f80a3005b60405162461bcd60e51b815260206004820152600d60248201526c20b63932b0b23c9030b236b4b760991b6044820152606490fd5b3461025c575f36600319011261025c576020600954604051908152f35b3461025c575f36600319011261025c57602060405160408152f35b3461025c575f36600319011261025c576005546040516001600160a01b039091168152602090f35b3461025c57602036600319011261025c57600435611abf613563565b611ac88161351a565b805f52600660205260405f206011810160ff815416600381101561037f57600214611b94576007820154611b4057611b066003830154600a54613117565b600a55600260ff198254161790556014429101557f8b529f2e78ae2f363cafb3439a51e15680c546cf09cd5f90836b824c77cdb19d5f80a2005b60405162461bcd60e51b815260206004820152602660248201527f43616e6e6f7420636c6f736520776974682070656e64696e67207265736572766044820152656174696f6e7360d01b6064820152608490fd5b60405162461bcd60e51b81526020600482015260166024820152751058d8dbdd5b9d08185b1c9958591e4818db1bdcd95960521b6044820152606490fd5b3461025c575f36600319011261025c57602060ff600c54166040519015158152f35b3461025c57604036600319011261025c576004356024356001600160401b03811161025c57611c27903690600401612ebf565b611c2f613563565b611c388361351a565b825f52600660205260405f209160ff601184015416600381101561037f576002611c6391141561307a565b611c6e821515613283565b5f5b828110611d11575060128301906001600160401b038311610fee57600160401b8311610fee578154838355808410611cf5575b50905f5260205f205f5b838110611ce157426014860155857f95bdac344fb4a5c2fb31ef352f573f93238a918e402ccc8022fca34e010187af5f80a2005b600190602084359401938184015501611cad565b611d0b90835f528460205f20918201910161324d565b85611ca3565b80611d1f60019285856132cf565b355f52600b602052611d3760ff60405f2054166132f3565b01611c70565b3461025c57602036600319011261025c576004355f52600b602052602060ff60405f2054166040519015158152f35b3461025c57602036600319011261025c57611d85612e49565b611d8d613563565b611d96816136e5565b6001600160a01b03165f8181526003602052604090205460ff16611df157805f52600360205260405f20600160ff198254161790557f34b1398910e7e1127008eff3e122abe649f8b40231bec120d6faaaa1294df3a65f80a2005b60405162461bcd60e51b815260206004820152601360248201527220b63932b0b23c9030b71037b832b930ba37b960691b6044820152606490fd5b3461025c57602036600319011261025c576001600160a01b03611e4d612e49565b165f526003602052602060ff60405f2054166040519015158152f35b3461025c57602036600319011261025c57600480355f9081526008602052604090208054600182015460028301546003840154948401546005850154929593946001600160a01b0392831694939092169290611ec760068401612f80565b600784015460ff1694600885015492600986015494600a87015496600b01611eee90612f80565b986040519b8c9b8c5260208c015260408b015260608a0152608089015260a088015260c0870161018090526101808701611f2791613020565b9360e08701611f3591613044565b610100860152610120850152610140840152828103610160840152610a9b91613020565b3461025c57602036600319011261025c57611f72612e49565b611f7a613563565b6001600160a01b03165f8181526003602052604090205460ff1615611fd357805f52600360205260405f2060ff1981541690557f6673fa75794eb977888a10eef3ea73d5c79a064cb2e7ab53378d72b72be5c94c5f80a2005b60405162461bcd60e51b815260206004820152600f60248201526e2737ba1030b71037b832b930ba37b960891b6044820152606490fd5b3461025c575f36600319011261025c57612022613563565b60ff19600c5416600c557f0e5e3b3fb504c22cf5c42fa07d521225937514c654007e1f12646f89768d6f945f80a1005b3461025c57602036600319011261025c5761206b612e49565b612073613563565b61207c816136e5565b6001600160a01b03165f8181526002602052604090205460ff166120d757805f52600260205260405f20600160ff198254161790557f3b4a40cccf2058c593542587329dd385be4f0b588db5471fbd9598e56dd7093a5f80a2005b60405162461bcd60e51b815260206004820152601160248201527020b63932b0b23c90309036b0b730b3b2b960791b6044820152606490fd5b3461025c5761012036600319011261025c5761212a612e49565b6024356001600160401b03811161025c57612149903690600401612e5f565b60e4359260c4359260443592909160643560a4356084356001600160a01b038916890361025c57610104356001600160401b03811161025c57612190903690600401612ebf565b61219b9a919a613563565b6121a36135a9565b6121ac866136e5565b6121b5826136e5565b861515806125df575b156125a357881561256957620151808510612524578215158061251a575b156124de576121ed838b1115613170565b831591821592836124d4575b61220290613124565b61220d821515613283565b8b5f5b838082106124a7575050506007549a6122288c613333565b6007555f8c81526006602052604090208c81556001810180546001600160a01b0319166001600160a01b038b1617905596600288016001600160401b038b11610fee576122758154612eef565b8b601f8211612476575b90505f601f821160011461240b575f91612400575b508b60011b905f198d60031b1c19161790555b600388018c905542600489015560058801555f600688015560088701859055600d870155600e860180546001600160a01b0319166001600160a01b0390921691909117905560118501805460ff19169055601285019a6001600160401b038211610fee57600160401b8211610fee578b54828d558083106123e4575b509a5f5260205f209a5f905b8282106123d05760208c8c817f05cdb59c0c1fb4fbc8210e73c286333179ef18263df30c923ff6f52ecc2397e68e8e8e8e8e8e8e156123c957505b60098201555f600a82015542600c82015542601382015560144291015561239386600a546130b7565b600a556123ad604051938493604085526040850191613263565b828901969096526001600160a01b0316940390a3604051908152f35b905061236a565b80358d83015560019091019060200161232f565b6123fa908d5f528360205f20918201910161324d565b8c612323565b90508c01355f612294565b90508c601f198d1691835f528d60205f20935f5b81811061245657501061243d575b50505060018b811b0190556122a7565b01355f1960038e901b60f8161c191690558f8c8161242d565b936020925083958392946001920135815501940192018f92918f9161241f565b6124a091835f5260205f20906020601f840160051c83019310610fe457601f0160051c019061324d565b8f8b61227f565b816124b4916001946132cf565b355f52600b6020526124cc60ff60405f2054166132f3565b018c90612210565b50838510156121f9565b60405162461bcd60e51b8152602060048201526014602482015273125b9d985b1a59081c195c8b5d1e081b1a5b5a5d60621b6044820152606490fd5b50888311156121dc565b60405162461bcd60e51b815260206004820152601760248201527f506572696f64206d757374206265203e3d2031206461790000000000000000006044820152606490fd5b60405162461bcd60e51b81526020600482015260126024820152710427564676574206d757374206265203e20360741b6044820152606490fd5b60405162461bcd60e51b8152602060048201526014602482015273092dcecc2d8d2c840d8c2c4cad840d8cadccee8d60631b6044820152606490fd5b5060408711156121be565b3461025c576125f836612e8c565b916126016135a9565b6126096135ef565b61261281613643565b61261a61368c565b805f52600860205260405f2092600184019283545f52600660205260405f209382151580612849575b61264c906131c6565b6007860160ff815416600581101561037f57600161266a911461320a565b805460ff1916600317905542600a870155600b8601956001600160401b038411610fee576126988754612eef565b601f8111612819575b505f96601f851160011461278f576114fc9291600391867ffbea8b9f9e5bb6f9a03cd11f54dbdee8507a841f97c68673e78e10787761424698999a5f91612784575b505f1988851b1c1916600188901b1790555b6126ff83546136aa565b0196875461271260078301918254613117565b90558754612725600683019182546130b7565b9055600b81018054895480821015612771575b505050875461274c600a83019182546130b7565b9055601442910155549554916040519384938452604060208501526040840191613263565b61277a91613117565b9055888080612738565b90508601358b6126e3565b601f198516815f5260205f20905f5b8181106128015750916114fc9493917ffbea8b9f9e5bb6f9a03cd11f54dbdee8507a841f97c68673e78e10787761424698999a88600395106127ea575b5050600187811b0190556126f5565b8701355f1989861b60f8161c191690558a806127db565b868b0135835560209a8b019a6001909301920161279e565b61284390885f5260205f20601f870160051c81019160208810610fe457601f0160051c019061324d565b876126a1565b506080831115612643565b3461025c57606036600319011261025c576004356024356044356128766134ab565b61287f8361351a565b825f52600660205260405f209160ff601184015416600381101561037f5760026128aa91141561307a565b801561297557811561293057808211156128f457600f83015560108201556014429101557f95bdac344fb4a5c2fb31ef352f573f93238a918e402ccc8022fca34e010187af5f80a2005b60405162461bcd60e51b81526020600482015260146024820152732a30b933b2ba1036bab9ba103132901f1036b4b760611b6044820152606490fd5b60405162461bcd60e51b815260206004820152601a60248201527f5461726765742062616c616e6365206d757374206265203e20300000000000006044820152606490fd5b60405162461bcd60e51b815260206004820152601760248201527f4d696e2062616c616e6365206d757374206265203e20300000000000000000006044820152606490fd5b3461025c5760c036600319011261025c5760043560243560a4356001600160a01b0381169060843590606435906044359084900361025c576129fa613563565b612a038661351a565b855f52600660205260405f209460ff601187015416600381101561037f576002612a2e91141561307a565b80612bd8575b5080612ace575b5080612ab3575b5080612a98575b5080612a7d575b506014429101557f95bdac344fb4a5c2fb31ef352f573f93238a918e402ccc8022fca34e010187af5f80a2005b600e820180546001600160a01b031916909117905582612a50565b612aa86008840154821115613170565b600d83015583612a49565b612ac36008850154821015613124565b600984015584612a42565b60038501548111612b9b5760098501548111612b5657806008860155600d85015411612afa5785612a3b565b60405162461bcd60e51b815260206004820152602e60248201527f4578697374696e6720617070726f76616c207468726573686f6c64203e206e6560448201526d1dc81c195c8b5d1e081b1a5b5a5d60921b6064820152608490fd5b60405162461bcd60e51b815260206004820152601a60248201527f5065722d7478206c696d6974203e206461696c79206c696d69740000000000006044820152606490fd5b60405162461bcd60e51b815260206004820152601560248201527414195c8b5d1e081b1a5b5a5d080f88189d5919d95d605a1b6044820152606490fd5b612beb60068701546007880154906130b7565b8110612c1257600a54612c0882610d8860038a0193845490613117565b600a555586612a34565b60405162461bcd60e51b815260206004820152602a60248201527f4e657720627564676574206d75737420636f766572206578697374696e6720616044820152696c6c6f636174696f6e7360b01b6064820152608490fd5b3461025c57602036600319011261025c57600435612c86613563565b612c8f8161351a565b805f52600660205260405f206011810160ff815416600381101561037f57600103612ce85760ff1981541690556014429101557fd84aa7a9b34e1bb78b26cb498ab6e30b91dfa360c7d0dbd1823a0868a8ff1a145f80a2005b60405162461bcd60e51b815260206004820152601260248201527120b1b1b7bab73a103737ba10333937bd32b760711b6044820152606490fd5b3461025c575f36600319011261025c576020600a54604051908152f35b3461025c57602036600319011261025c57600435612d5b6134ab565b612d648161351a565b805f52600660205260405f2060ff601182015416600381101561037f576002612d8e91141561307a565b6004810190612da661045f83546005840154906130b7565b6007810154612df5577fbfb56f3ee40532a44d4b16c2c91641b2d03908d370701dab2975ca05d5c4aec49181600660409301915f835493554290556014429101558151904282526020820152a2005b60405162461bcd60e51b815260206004820152602660248201527f43616e6e6f7420726573657420776974682070656e64696e67207265736572766044820152656174696f6e7360d01b6064820152608490fd5b600435906001600160a01b038216820361025c57565b9181601f8401121561025c578235916001600160401b03831161025c576020838186019501011161025c57565b90604060031983011261025c5760043591602435906001600160401b03821161025c57612ebb91600401612e5f565b9091565b9181601f8401121561025c578235916001600160401b03831161025c576020808501948460051b01011161025c57565b90600182811c92168015612f1d575b6020831014612f0957565b634e487b7160e01b5f52602260045260245ffd5b91607f1691612efe565b61018081019081106001600160401b03821117610fee57604052565b6102a081019081106001600160401b03821117610fee57604052565b90601f801991011681019081106001600160401b03821117610fee57604052565b9060405191825f825492612f9384612eef565b8084529360018116908115612ffe5750600114612fba575b50612fb892500383612f5f565b565b90505f9291925260205f20905f915b818310612fe2575050906020612fb8928201015f612fab565b6020919350806001915483858901015201910190918492612fc9565b905060209250612fb894915060ff191682840152151560051b8201015f612fab565b805180835260209291819084018484015e5f828201840152601f01601f1916010190565b90600582101561037f5752565b3461025c575f36600319011261025c5760206040516101008152f35b90600382101561037f5752565b1561308157565b60405162461bcd60e51b815260206004820152600e60248201526d1058d8dbdd5b9d0818db1bdcd95960921b6044820152606490fd5b919082018092116130c457565b634e487b7160e01b5f52601160045260245ffd5b156130df57565b60405162461bcd60e51b815260206004820152601060248201526f14195c9a5bd9081b9bdd08195b99195960821b6044820152606490fd5b919082039182116130c457565b1561312b57565b60405162461bcd60e51b815260206004820152601860248201527f4461696c79206c696d6974203c2070657254784c696d697400000000000000006044820152606490fd5b1561317757565b60405162461bcd60e51b815260206004820152602160248201527f417070726f76616c207468726573686f6c64203e207065722d7478206c696d696044820152601d60fa1b6064820152608490fd5b156131cd57565b60405162461bcd60e51b8152602060048201526015602482015274125b9d985b1a590819d85d195dd85e481d1e081251605a1b6044820152606490fd5b1561321157565b60405162461bcd60e51b815260206004820152601460248201527314995c5d595cdd081b9bdd08185c1c1c9bdd995960621b6044820152606490fd5b818110613258575050565b5f815560010161324d565b908060209392818452848401375f828201840152601f01601f1916010190565b1561328a57565b60405162461bcd60e51b815260206004820152601d60248201527f4d75737420616c6c6f77206174206c65617374206f6e6520636861696e0000006044820152606490fd5b91908110156132df5760051b0190565b634e487b7160e01b5f52603260045260245ffd5b156132fa57565b60405162461bcd60e51b81526020600482015260116024820152702ab739bab83837b93a32b21031b430b4b760791b6044820152606490fd5b5f1981146130c45760010190565b9493929160409261335f928752606060208801526060870191613263565b930152565b1561336b57565b60405162461bcd60e51b815260206004820152600f60248201526e526561736f6e20746f6f206c6f6e6760881b6044820152606490fd5b156133a957565b60405162461bcd60e51b815260206004820152601360248201527252657175657374206e6f742070656e64696e6760681b6044820152606490fd5b156133eb57565b60405162461bcd60e51b81526020600482015260126024820152714163636f756e74206e6f742061637469766560701b6044820152606490fd5b1561342c57565b60405162461bcd60e51b8152602060048201526015602482015274115e18d959591cc81c195c9a5bd908189d5919d95d605a1b6044820152606490fd5b1561347057565b60405162461bcd60e51b8152602060048201526013602482015272115e18d959591cc819185a5b1e481b1a5b5a5d606a1b6044820152606490fd5b335f52600260205260ff60405f2054168015613506575b156134c957565b60405162461bcd60e51b815260206004820152601560248201527427b7363c9036b0b730b3b2b91037b91030b236b4b760591b6044820152606490fd5b506001546001600160a01b031633146134c2565b600754111561352557565b60405162461bcd60e51b81526020600482015260166024820152751058d8dbdd5b9d08191bd95cc81b9bdd08195e1a5cdd60521b6044820152606490fd5b6001546001600160a01b0316330361357757565b60405162461bcd60e51b815260206004820152600a60248201526927b7363c9030b236b4b760b11b6044820152606490fd5b60ff600c54166135b557565b60405162461bcd60e51b815260206004820152601260248201527110dbdb9d1c9858dd081a5cc81c185d5cd95960721b6044820152606490fd5b335f52600360205260ff60405f2054161561360657565b60405162461bcd60e51b815260206004820152601560248201527427b7363c903130b1b5b2b7321037b832b930ba37b960591b6044820152606490fd5b600954111561364e57565b60405162461bcd60e51b815260206004820152601660248201527514995c5d595cdd08191bd95cc81b9bdd08195e1a5cdd60521b6044820152606490fd5b60025f541461369b5760025f55565b633ee5aeb560e01b5f5260045ffd5b5f52600660205260405f20600c81019081546201518081018091116130c4574210156136d4575050565b600b815f600a819401550155429055565b6001600160a01b0316156136f557565b60405162461bcd60e51b815260206004820152600f60248201526e496e76616c6964206164647265737360881b6044820152606490fdfea2646970667358221220e3b0f558ed4c0e842dcbce5c0a933c50b4e1e41d564d7012c9d61e79ba960c4664736f6c634300081e0033",
    "linkReferences": {}
  },
  "methodIdentifiers": {
    "MAX_DESCRIPTION_LENGTH()": "9201ea0a",
    "MAX_GATEWAY_TX_ID_LENGTH()": "bbad58ee",
    "MAX_LABEL_LENGTH()": "6464e58f",
    "MAX_REASON_LENGTH()": "a2f628e4",
    "addBackendOperator(address)": "4d7869a0",
    "addManager(address)": "2d06177a",
    "admin()": "f851a440",
    "approveSpend(uint256)": "ad453b6f",
    "autoTopup(uint256)": "b810f879",
    "backendOperators(address)": "4b9375fa",
    "closeAccount(uint256)": "60c90582",
    "createSpendAccount(address,string,uint256,uint256,uint256,uint256,uint256,address,uint256[])": "2bf736ef",
    "freezeAccount(uint256)": "de3dac84",
    "gatewayOrgId()": "b7082720",
    "gatewayWalletAddress()": "63750df0",
    "getAccount(uint256)": "ce88b145",
    "getAccountCount()": "a98e4e77",
    "getRequest(uint256)": "c58343ef",
    "getRequestCount()": "3fad1834",
    "isPeriodEnded(uint256)": "aaf992d9",
    "managers(address)": "fdff9b4d",
    "markSpendExecuted(uint256,string)": "2838383e",
    "markSpendFailed(uint256,string)": "7a987867",
    "nextAccountId()": "39072462",
    "nextRequestId()": "6a84a985",
    "pause()": "8456cb59",
    "paused()": "5c975abb",
    "recordInboundFunding(uint256,string)": "7809f90f",
    "recordOutboundFunding(uint256,string)": "d7e3e655",
    "rejectSpend(uint256,string)": "a2ffea1d",
    "removeBackendOperator(address)": "47047107",
    "removeManager(address)": "ac18de43",
    "requestSpend(uint256,uint256,uint256,address,string)": "b866cd1d",
    "resetPeriod(uint256)": "052e2615",
    "setAutoTopupConfig(uint256,uint256,uint256)": "27f3dc6e",
    "setChainSupport(uint256,bool)": "ec93dee3",
    "setGatewayConfig(bytes32,address)": "8e658bc8",
    "spendAccounts(uint256)": "c24e04af",
    "spendRequests(uint256)": "496c8ada",
    "supportedChains(uint256)": "548d496f",
    "sweepAccount(uint256)": "d5e44489",
    "totalCommittedBudget()": "13173696",
    "transferAdmin(address)": "75829def",
    "unfreezeAccount(uint256)": "13b2e657",
    "unpause()": "3f4ba83a",
    "updateAllowedChains(uint256,uint256[])": "586226a2",
    "updateSpendAccount(uint256,uint256,uint256,uint256,uint256,address)": "1c8d4dd2"
  },
  "id": 23
}